{
  "contractName": "conversionAction",
  "abi": [
    {
      "inputs": [],
      "payable": false,
      "stateMutability": "nonpayable",
      "type": "constructor"
    },
    {
      "anonymous": false,
      "inputs": [
        {
          "indexed": false,
          "name": "idx",
          "type": "int256"
        },
        {
          "indexed": false,
          "name": "download",
          "type": "int256"
        },
        {
          "indexed": false,
          "name": "signUp",
          "type": "int256"
        },
        {
          "indexed": false,
          "name": "hits",
          "type": "int256"
        },
        {
          "indexed": false,
          "name": "buy",
          "type": "int256"
        }
      ],
      "name": "settingAction",
      "type": "event"
    },
    {
      "constant": false,
      "inputs": [
        {
          "name": "idx",
          "type": "int256"
        },
        {
          "name": "download",
          "type": "int256"
        },
        {
          "name": "signUp",
          "type": "int256"
        },
        {
          "name": "hits",
          "type": "int256"
        },
        {
          "name": "buy",
          "type": "int256"
        }
      ],
      "name": "setAction",
      "outputs": [],
      "payable": false,
      "stateMutability": "nonpayable",
      "type": "function"
    },
    {
      "constant": true,
      "inputs": [],
      "name": "getAction",
      "outputs": [
        {
          "name": "download",
          "type": "int256"
        },
        {
          "name": "signUp",
          "type": "int256"
        },
        {
          "name": "hits",
          "type": "int256"
        },
        {
          "name": "buy",
          "type": "int256"
        }
      ],
      "payable": false,
      "stateMutability": "view",
      "type": "function"
    }
  ],
  "bytecode": "0x608060405234801561001057600080fd5b506101f1806100206000396000f30060806040526004361061004c576000357c0100000000000000000000000000000000000000000000000000000000900463ffffffff16806326e1aab7146100515780633e99f10314610091575b600080fd5b34801561005d57600080fd5b506100666100e6565b6040518085815260200184815260200183815260200182815260200194505050505060405180910390f35b34801561009d57600080fd5b506100e46004803603810190808035906020019092919080359060200190929190803590602001909291908035906020019092919080359060200190929190505050610111565b005b6000806000806001600001546001800154600160020154600160030154935093509350935090919293565b7fc3e3bd3b8b2c4f8bf0ddc6c01ee5a6de47878ed73f85590763d2a8fe400724428585858585604051808681526020018581526020018481526020018381526020018281526020019550505050505060405180910390a1846000819055506080604051908101604052808581526020018481526020018381526020018281525060016000820151816000015560208201518160010155604082015181600201556060820151816003015590505050505050505600a165627a7a723058201826d24116079fe320cb98dbf843f92593829eff7fb491ca0c558b23ca63f2150029",
  "source": "pragma solidity ^0.4.18;\n\ncontract conversionAction{\n\n    event settingAction(int idx, int download, int signUp, int hits, int buy);\n\n    int private contract_idx; // interact with RDB's contract indendifier\n\n    struct Action {\n      int download;\n      int signUp;\n      int hits;\n      int buy;\n    }\n\n    Action action;\n\n    constructor() public{}\n\n    function setAction(int idx, int download, int signUp, int hits, int buy) public{\n        emit settingAction(idx, download, signUp, hits, buy);\n        contract_idx = idx;\n        action = Action({\n          download : download,\n          signUp : signUp,\n          hits : hits,\n          buy : buy\n        });\n    }\n\n    function getAction() public view returns (int download, int signUp, int hits, int buy) {\n        return (action.download, action.signUp, action.hits, action.buy);\n    }\n\n}\n",
  "sourcePath": "C:\\Users\\leesd\\nodeJS\\dappws2\\truffle_practice\\contracts\\conversionAction.sol",
  "compiler": {
    "name": "solc",
    "version": "0.4.24+commit.e67f0147.Emscripten.clang"
  },
  "schemaVersion": "2.0.1",
  "updatedAt": "2018-10-14T09:39:12.526Z"
}